S015000061744D656761385F636C6F636B2E737265631D
S11300001CC018C221C234C033C032C09FC130C02A
S11300102FC0C5C12DC02CC02BC02AC029C028C0E8
S113002027C026C025C0B6C0B9C0BCC0BFC0C2C0AE
S1130030C5C0C8C0CBC0CEC0D0C011241FBECFE540
S1130040D4E0DEBFCDBF10E0A0E6B0E0E4EFF4E022
S113005002C005900D92A436B107D9F720E0A4E6BA
S1130060B0E001C01D92AF36B207E1F710D240C232
S1130070C7CF8A988B9882B38C6082BB85B78A601D
S113008085BF08958BB780688BBF08958EB58E6049
S11300908EBD8FB584608FBD8FEF9FE79BBD8ABDFA
S11300A083E083BF89B7816089BF089589B7806180
S11300B089BF089589B78F7E89BF089581B3806C05
S11300C081BB82B3806C82BB8FEF87BB88BB84BB50
S11300D085BB08958EE190E02FE738E341E021509D
S11300E030404040E1F700C00000829902C001970F
S11300F099F782991BC080916D0090916E00909346
S113010066008093650080916B0090916C009093E1
S11301106300809362008091690090916A009093DB
S113012061008093600081E0809364000895FC0185
S113013082B390E4982792BB208131812F5F3F4F97
S11301402C33310519F03183208308C011821082C9
S1130150FB0180819181019691838083FB018081E1
S11301609181CC9741F411821082FA0180819181AE
S1130170019691838083FA0180819181489711F4DB
S11301801182108208958A30910550F5FC01ED5ECC
S1130190FF4F099480E288BB979808958CE388BB4D
S11301A0979A089582E188BB9798089588E188BB5F
S11301B0979808958CE088BB979A089589E088BB46
S11301C09798089581E088BB979808958CE388BB3D
S11301D09798089518BA9798089588E088BB9798D7
S11301E00895611145C08230910501F134F40097FE
S11301F061F08130910589F008958430910539F1D9
S1130200ECF08530910559F1089580916D0090913D
S11302106E006AE070E045D1089580916D00909180
S11302206E006AE070E03DD1CB01089580916B00CF
S113023090916C006AE070E034D1089580916B0075
S113024090916C006AE070E02CD1CB01089580910C
S1130250690090916A006AE070E023D1089580916A
S1130260690090916A006AE070E01BD1CB010895A7
S11302708230910501F134F4009761F081309105E9
S113028089F008958430910539F1ECF085309105B9
S113029059F1089580916500909166006AE070E0DC
S11302A000D1089580916500909166006AE070E045
S11302B0F8D0CB01089580916200909163006AE0C8
S11302C070E0EFD0089580916200909163006AE03D
S11302D070E0E7D0CB0108958091600090916100B7
S11302E06AE070E0DED00895809160009091610032
S11302F06AE070E0D6D0CB010895CF93DF93EC0190
S11303008FEF85BBFB01808191813DDF88819981DD
S11303108230910589F02CF4009751F0019751F047
S113032012C08430910561F04CF0059759F00BC070
S1130330A89809C0A99807C0AA9805C0AB9803C09B
S1130340AC9801C0AD98DF91CF9108951F920F92A0
S11303500FB60F9211242F933F934F935F936F9394
S11303607F938F939F93AF93BF93EF93FF9349E64C
S113037050E06BE670E08DE690E0D9DEFF91EF91FE
S1130380BF91AF919F918F917F916F915F914F91A9
S11303903F912F910F900FBE0F901F9018951F92B1
S11303A00F920FB60F9211242F933F934F935F93A5
S11303B06F937F938F939F93AF93BF93EF93FF9329
S11303C0CF93DF9300D0CDB7DEB760916400809106
S11303D067009091680005DF9A838983BE016F5F8F
S11303E07F4F87E690E089DF8091670090916800F5
S11303F001968630910529F09093680080936700F8
S113040004C010926800109267000F900F90DF9163
S1130410CF91FF91EF91BF91AF919F918F917F9178
S11304206F915F914F913F912F910F900FBE0F905D
S11304301F9018951F920F920FB60F9211240F90D0
S11304400FBE0F901F9018951F920F920FB60F9228
S113045011242F933F934F935F936F937F938F93C5
S11304609F93AF93BF93EF93FF9324DEFF91EF919C
S1130470BF91AF919F918F917F916F915F914F91B8
S11304803F912F910F900FBE0F901F901895789465
S1130490FDDD14DE0BDEEDDDF5DD8299FECF1ADE27
S11304A0FCCF97FB072E16F4009406D077FD08D0F6
S11304B00BD007FC05D03EF4909581959F4F08958D
S11304C0709561957F4F0895AA1BBB1B51E107C02E
S11304D0AA1FBB1FA617B70710F0A61BB70B881FD0
S11304E0991F5A95A9F780959095BC01CD0108955F
S10704F0F894FFCFAA
S10704F401000900F6
S9030000FC
